{
  "_format": "hh-sol-artifact-1",
  "contractName": "AssetTracker",
  "sourceName": "contracts/AssetTracker.sol",
  "abi": [
    {
      "anonymous": false,
      "inputs": [
        {
          "indexed": false,
          "internalType": "string",
          "name": "name",
          "type": "string"
        },
        {
          "indexed": false,
          "internalType": "string",
          "name": "add",
          "type": "string"
        },
        {
          "indexed": false,
          "internalType": "string",
          "name": "email",
          "type": "string"
        },
        {
          "indexed": false,
          "internalType": "string",
          "name": "phone",
          "type": "string"
        }
      ],
      "name": "RejectDistributor",
      "type": "event"
    },
    {
      "inputs": [
        {
          "internalType": "uint256",
          "name": "i",
          "type": "uint256"
        }
      ],
      "name": "Arrived",
      "outputs": [],
      "stateMutability": "nonpayable",
      "type": "function"
    },
    {
      "inputs": [],
      "name": "assetCount",
      "outputs": [
        {
          "internalType": "uint256",
          "name": "",
          "type": "uint256"
        }
      ],
      "stateMutability": "view",
      "type": "function"
    },
    {
      "inputs": [
        {
          "internalType": "uint256",
          "name": "_amount",
          "type": "uint256"
        }
      ],
      "name": "balance",
      "outputs": [
        {
          "internalType": "bool",
          "name": "",
          "type": "bool"
        }
      ],
      "stateMutability": "pure",
      "type": "function"
    },
    {
      "inputs": [
        {
          "internalType": "uint256",
          "name": "i",
          "type": "uint256"
        }
      ],
      "name": "check_status",
      "outputs": [
        {
          "internalType": "bool",
          "name": "f",
          "type": "bool"
        }
      ],
      "stateMutability": "view",
      "type": "function"
    },
    {
      "inputs": [
        {
          "internalType": "string",
          "name": "name",
          "type": "string"
        },
        {
          "internalType": "string",
          "name": "description",
          "type": "string"
        },
        {
          "internalType": "uint256",
          "name": "distributorId",
          "type": "uint256"
        },
        {
          "internalType": "uint256",
          "name": "cost",
          "type": "uint256"
        },
        {
          "internalType": "uint256",
          "name": "quantity",
          "type": "uint256"
        },
        {
          "internalType": "string",
          "name": "manufacturer",
          "type": "string"
        },
        {
          "internalType": "string",
          "name": "customer",
          "type": "string"
        },
        {
          "internalType": "string",
          "name": "addressFrom",
          "type": "string"
        },
        {
          "internalType": "string",
          "name": "addressTo",
          "type": "string"
        }
      ],
      "name": "createAsset",
      "outputs": [],
      "stateMutability": "nonpayable",
      "type": "function"
    },
    {
      "inputs": [],
      "name": "distributorCount",
      "outputs": [
        {
          "internalType": "uint256",
          "name": "",
          "type": "uint256"
        }
      ],
      "stateMutability": "view",
      "type": "function"
    },
    {
      "inputs": [],
      "name": "getAllAssets",
      "outputs": [
        {
          "components": [
            {
              "internalType": "string",
              "name": "name",
              "type": "string"
            },
            {
              "internalType": "string",
              "name": "description",
              "type": "string"
            },
            {
              "internalType": "uint256",
              "name": "cost",
              "type": "uint256"
            },
            {
              "internalType": "uint256",
              "name": "quantity",
              "type": "uint256"
            },
            {
              "internalType": "string",
              "name": "manufacturer",
              "type": "string"
            },
            {
              "internalType": "string",
              "name": "customer",
              "type": "string"
            },
            {
              "internalType": "string",
              "name": "addressFrom",
              "type": "string"
            },
            {
              "internalType": "string",
              "name": "addressTo",
              "type": "string"
            },
            {
              "internalType": "bool",
              "name": "initialized",
              "type": "bool"
            },
            {
              "internalType": "bool",
              "name": "arrived",
              "type": "bool"
            },
            {
              "internalType": "uint256",
              "name": "distributorId",
              "type": "uint256"
            }
          ],
          "internalType": "struct AssetTracker.Asset[]",
          "name": "",
          "type": "tuple[]"
        }
      ],
      "stateMutability": "view",
      "type": "function"
    },
    {
      "inputs": [],
      "name": "getAlldistributors",
      "outputs": [
        {
          "components": [
            {
              "internalType": "uint256",
              "name": "id",
              "type": "uint256"
            },
            {
              "internalType": "string",
              "name": "name",
              "type": "string"
            },
            {
              "internalType": "string",
              "name": "add",
              "type": "string"
            },
            {
              "internalType": "string",
              "name": "email",
              "type": "string"
            },
            {
              "internalType": "string",
              "name": "phone",
              "type": "string"
            }
          ],
          "internalType": "struct AssetTracker.Person[]",
          "name": "",
          "type": "tuple[]"
        }
      ],
      "stateMutability": "view",
      "type": "function"
    },
    {
      "inputs": [],
      "name": "getAssetCount",
      "outputs": [
        {
          "internalType": "uint256",
          "name": "count",
          "type": "uint256"
        }
      ],
      "stateMutability": "view",
      "type": "function"
    },
    {
      "inputs": [
        {
          "internalType": "uint256",
          "name": "id",
          "type": "uint256"
        }
      ],
      "name": "getDistributorbyId",
      "outputs": [
        {
          "internalType": "string",
          "name": "",
          "type": "string"
        },
        {
          "internalType": "string",
          "name": "",
          "type": "string"
        },
        {
          "internalType": "string",
          "name": "",
          "type": "string"
        },
        {
          "internalType": "string",
          "name": "",
          "type": "string"
        }
      ],
      "stateMutability": "view",
      "type": "function"
    },
    {
      "inputs": [
        {
          "internalType": "uint256",
          "name": "i",
          "type": "uint256"
        }
      ],
      "name": "getItemByUUID",
      "outputs": [
        {
          "internalType": "uint256",
          "name": "cost",
          "type": "uint256"
        },
        {
          "internalType": "uint256",
          "name": "quantity",
          "type": "uint256"
        }
      ],
      "stateMutability": "view",
      "type": "function"
    },
    {
      "inputs": [
        {
          "internalType": "string",
          "name": "name",
          "type": "string"
        },
        {
          "internalType": "string",
          "name": "add",
          "type": "string"
        },
        {
          "internalType": "string",
          "name": "email",
          "type": "string"
        },
        {
          "internalType": "string",
          "name": "phone",
          "type": "string"
        }
      ],
      "name": "insertDistributor",
      "outputs": [
        {
          "internalType": "bool",
          "name": "",
          "type": "bool"
        }
      ],
      "stateMutability": "nonpayable",
      "type": "function"
    },
    {
      "inputs": [
        {
          "internalType": "address",
          "name": "owner",
          "type": "address"
        },
        {
          "internalType": "uint256",
          "name": "i",
          "type": "uint256"
        }
      ],
      "name": "isOwnerOf",
      "outputs": [
        {
          "internalType": "bool",
          "name": "",
          "type": "bool"
        }
      ],
      "stateMutability": "view",
      "type": "function"
    },
    {
      "inputs": [
        {
          "internalType": "address",
          "name": "to",
          "type": "address"
        },
        {
          "internalType": "uint256",
          "name": "i",
          "type": "uint256"
        }
      ],
      "name": "transferAsset",
      "outputs": [],
      "stateMutability": "nonpayable",
      "type": "function"
    }
  ],
  "bytecode": "0x60806040526000600155600060025534801561001a57600080fd5b506125958061002a6000396000f3fe608060405234801561001057600080fd5b50600436106100ea5760003560e01c8063a0aead4d1161008c578063c5b8f77211610066578063c5b8f77214610260578063c9469a4b14610290578063eafe7a74146102ac578063fdd0e4d7146102ca576100ea565b8063a0aead4d146101f3578063ba1d899514610211578063c524635314610242576100ea565b80633ac140e8116100c85780633ac140e81461015957806347bb89f0146101775780635c921eb9146101a757806375249329146101c3576100ea565b80630fbccfb3146100ef5780631e78717d1461011f5780632acada4d1461013b575b600080fd5b61010960048036038101906101049190611503565b6102fd565b604051610116919061154b565b60405180910390f35b610139600480360381019061013491906116ac565b61032a565b005b610143610507565b6040516101509190611a8f565b60405180910390f35b610161610988565b60405161016e9190611ac0565b60405180910390f35b610191600480360381019061018c9190611503565b61098e565b60405161019e919061154b565b60405180910390f35b6101c160048036038101906101bc9190611b39565b6109dc565b005b6101dd60048036038101906101d89190611b79565b610bc2565b6040516101ea919061154b565b60405180910390f35b6101fb610d48565b6040516102089190611ac0565b60405180910390f35b61022b60048036038101906102269190611503565b610d52565b604051610239929190611c50565b60405180910390f35b61024a610dd1565b6040516102579190611dc6565b60405180910390f35b61027a60048036038101906102759190611b39565b6110e2565b604051610287919061154b565b60405180910390f35b6102aa60048036038101906102a59190611503565b61115b565b005b6102b461118d565b6040516102c19190611ac0565b60405180910390f35b6102e460048036038101906102df9190611503565b611193565b6040516102f49493929190611e32565b60405180910390f35b60006003600083815260200190815260200160002060080160019054906101000a900460ff169050919050565b6040518061016001604052808a81526020018981526020018781526020018681526020018581526020018481526020018381526020018281526020016001151581526020016000151581526020018881525060036000600254815260200190815260200160002060008201518160000190816103a6919061209f565b5060208201518160010190816103bc919061209f565b50604082015181600201556060820151816003015560808201518160040190816103e6919061209f565b5060a08201518160050190816103fc919061209f565b5060c0820151816006019081610412919061209f565b5060e0820151816007019081610428919061209f565b506101008201518160080160006101000a81548160ff0219169083151502179055506101208201518160080160016101000a81548160ff02191690831515021790555061014082015181600901559050506001600460003373ffffffffffffffffffffffffffffffffffffffff1673ffffffffffffffffffffffffffffffffffffffff1681526020019081526020016000206000600254815260200190815260200160002060006101000a81548160ff021916908315150217905550600260008154809291906104f7906121a0565b9190505550505050505050505050565b6060600060025467ffffffffffffffff81111561052757610526611581565b5b60405190808252806020026020018201604052801561056057816020015b61054d61142c565b8152602001906001900390816105455790505b50905060005b60025481101561098057600060036000838152602001908152602001600020905080604051806101600160405290816000820180546105a490611ec2565b80601f01602080910402602001604051908101604052809291908181526020018280546105d090611ec2565b801561061d5780601f106105f25761010080835404028352916020019161061d565b820191906000526020600020905b81548152906001019060200180831161060057829003601f168201915b5050505050815260200160018201805461063690611ec2565b80601f016020809104026020016040519081016040528092919081815260200182805461066290611ec2565b80156106af5780601f10610684576101008083540402835291602001916106af565b820191906000526020600020905b81548152906001019060200180831161069257829003601f168201915b5050505050815260200160028201548152602001600382015481526020016004820180546106dc90611ec2565b80601f016020809104026020016040519081016040528092919081815260200182805461070890611ec2565b80156107555780601f1061072a57610100808354040283529160200191610755565b820191906000526020600020905b81548152906001019060200180831161073857829003601f168201915b5050505050815260200160058201805461076e90611ec2565b80601f016020809104026020016040519081016040528092919081815260200182805461079a90611ec2565b80156107e75780601f106107bc576101008083540402835291602001916107e7565b820191906000526020600020905b8154815290600101906020018083116107ca57829003601f168201915b5050505050815260200160068201805461080090611ec2565b80601f016020809104026020016040519081016040528092919081815260200182805461082c90611ec2565b80156108795780601f1061084e57610100808354040283529160200191610879565b820191906000526020600020905b81548152906001019060200180831161085c57829003601f168201915b5050505050815260200160078201805461089290611ec2565b80601f01602080910402602001604051908101604052809291908181526020018280546108be90611ec2565b801561090b5780601f106108e05761010080835404028352916020019161090b565b820191906000526020600020905b8154815290600101906020018083116108ee57829003601f168201915b505050505081526020016008820160009054906101000a900460ff161515151581526020016008820160019054906101000a900460ff16151515158152602001600982015481525050838381518110610967576109666121e8565b5b6020026020010181905250508080600101915050610566565b508091505090565b60015481565b6000601482106109d3576040517f08c379a00000000000000000000000000000000000000000000000000000000081526004016109ca90612289565b60405180910390fd5b60019050919050565b6001151560036000600254815260200190815260200160002060080160009054906101000a900460ff16151514610a48576040517f08c379a0000000000000000000000000000000000000000000000000000000008152600401610a3f906122f5565b60405180910390fd5b60011515600460003373ffffffffffffffffffffffffffffffffffffffff1673ffffffffffffffffffffffffffffffffffffffff168152602001908152602001600020600083815260200190815260200160002060009054906101000a900460ff16151514610aec576040517f08c379a0000000000000000000000000000000000000000000000000000000008152600401610ae390612361565b60405180910390fd5b6000600460003373ffffffffffffffffffffffffffffffffffffffff1673ffffffffffffffffffffffffffffffffffffffff168152602001908152602001600020600083815260200190815260200160002060006101000a81548160ff0219169083151502179055506001600460008473ffffffffffffffffffffffffffffffffffffffff1673ffffffffffffffffffffffffffffffffffffffff168152602001908152602001600020600083815260200190815260200160002060006101000a81548160ff0219169083151502179055505050565b600080600090505b600154811015610c8157604051602001610be3906123d8565b60405160208183030381529060405280519060200120600080838152602001908152602001600020600301604051602001610c1e9190612470565b6040516020818303038152906040528051906020012003610c74576040517f08c379a0000000000000000000000000000000000000000000000000000000008152600401610c6b906124d3565b60405180910390fd5b8080600101915050610bca565b506040518060a001604052806001548152602001868152602001858152602001848152602001838152506000806001548152602001908152602001600020600082015181600001556020820151816001019081610cde919061209f565b506040820151816002019081610cf4919061209f565b506060820151816003019081610d0a919061209f565b506080820151816004019081610d20919061209f565b5090505060016000815480929190610d37906121a0565b919050555060019050949350505050565b6000600254905090565b600080600254831115610d9a576040517f08c379a0000000000000000000000000000000000000000000000000000000008152600401610d919061253f565b60405180910390fd5b6003600084815260200190815260200160002060020154600360008581526020019081526020016000206003015491509150915091565b6060600060015467ffffffffffffffff811115610df157610df0611581565b5b604051908082528060200260200182016040528015610e2a57816020015b610e1761148a565b815260200190600190039081610e0f5790505b50905060005b6001548110156110da5760008060008381526020019081526020016000209050806040518060a001604052908160008201548152602001600182018054610e7690611ec2565b80601f0160208091040260200160405190810160405280929190818152602001828054610ea290611ec2565b8015610eef5780601f10610ec457610100808354040283529160200191610eef565b820191906000526020600020905b815481529060010190602001808311610ed257829003601f168201915b50505050508152602001600282018054610f0890611ec2565b80601f0160208091040260200160405190810160405280929190818152602001828054610f3490611ec2565b8015610f815780601f10610f5657610100808354040283529160200191610f81565b820191906000526020600020905b815481529060010190602001808311610f6457829003601f168201915b50505050508152602001600382018054610f9a90611ec2565b80601f0160208091040260200160405190810160405280929190818152602001828054610fc690611ec2565b80156110135780601f10610fe857610100808354040283529160200191611013565b820191906000526020600020905b815481529060010190602001808311610ff657829003601f168201915b5050505050815260200160048201805461102c90611ec2565b80601f016020809104026020016040519081016040528092919081815260200182805461105890611ec2565b80156110a55780601f1061107a576101008083540402835291602001916110a5565b820191906000526020600020905b81548152906001019060200180831161108857829003601f168201915b5050505050815250508383815181106110c1576110c06121e8565b5b6020026020010181905250508080600101915050610e30565b508091505090565b6000600460008473ffffffffffffffffffffffffffffffffffffffff1673ffffffffffffffffffffffffffffffffffffffff168152602001908152602001600020600083815260200190815260200160002060009054906101000a900460ff16156111505760019050611155565b600090505b92915050565b60016003600083815260200190815260200160002060080160016101000a81548160ff02191690831515021790555050565b60025481565b6060806060806000808681526020019081526020016000206001016000808781526020019081526020016000206002016000808881526020019081526020016000206003016000808981526020019081526020016000206004018380546111f990611ec2565b80601f016020809104026020016040519081016040528092919081815260200182805461122590611ec2565b80156112725780601f1061124757610100808354040283529160200191611272565b820191906000526020600020905b81548152906001019060200180831161125557829003601f168201915b5050505050935082805461128590611ec2565b80601f01602080910402602001604051908101604052809291908181526020018280546112b190611ec2565b80156112fe5780601f106112d3576101008083540402835291602001916112fe565b820191906000526020600020905b8154815290600101906020018083116112e157829003601f168201915b5050505050925081805461131190611ec2565b80601f016020809104026020016040519081016040528092919081815260200182805461133d90611ec2565b801561138a5780601f1061135f5761010080835404028352916020019161138a565b820191906000526020600020905b81548152906001019060200180831161136d57829003601f168201915b5050505050915080805461139d90611ec2565b80601f01602080910402602001604051908101604052809291908181526020018280546113c990611ec2565b80156114165780601f106113eb57610100808354040283529160200191611416565b820191906000526020600020905b8154815290600101906020018083116113f957829003601f168201915b5050505050905093509350935093509193509193565b6040518061016001604052806060815260200160608152602001600081526020016000815260200160608152602001606081526020016060815260200160608152602001600015158152602001600015158152602001600081525090565b6040518060a0016040528060008152602001606081526020016060815260200160608152602001606081525090565b6000604051905090565b600080fd5b600080fd5b6000819050919050565b6114e0816114cd565b81146114eb57600080fd5b50565b6000813590506114fd816114d7565b92915050565b600060208284031215611519576115186114c3565b5b6000611527848285016114ee565b91505092915050565b60008115159050919050565b61154581611530565b82525050565b6000602082019050611560600083018461153c565b92915050565b600080fd5b600080fd5b6000601f19601f8301169050919050565b7f4e487b7100000000000000000000000000000000000000000000000000000000600052604160045260246000fd5b6115b982611570565b810181811067ffffffffffffffff821117156115d8576115d7611581565b5b80604052505050565b60006115eb6114b9565b90506115f782826115b0565b919050565b600067ffffffffffffffff82111561161757611616611581565b5b61162082611570565b9050602081019050919050565b82818337600083830152505050565b600061164f61164a846115fc565b6115e1565b90508281526020810184848401111561166b5761166a61156b565b5b61167684828561162d565b509392505050565b600082601f83011261169357611692611566565b5b81356116a384826020860161163c565b91505092915050565b60008060008060008060008060006101208a8c0312156116cf576116ce6114c3565b5b60008a013567ffffffffffffffff8111156116ed576116ec6114c8565b5b6116f98c828d0161167e565b99505060208a013567ffffffffffffffff81111561171a576117196114c8565b5b6117268c828d0161167e565b98505060406117378c828d016114ee565b97505060606117488c828d016114ee565b96505060806117598c828d016114ee565b95505060a08a013567ffffffffffffffff81111561177a576117796114c8565b5b6117868c828d0161167e565b94505060c08a013567ffffffffffffffff8111156117a7576117a66114c8565b5b6117b38c828d0161167e565b93505060e08a013567ffffffffffffffff8111156117d4576117d36114c8565b5b6117e08c828d0161167e565b9250506101008a013567ffffffffffffffff811115611802576118016114c8565b5b61180e8c828d0161167e565b9150509295985092959850929598565b600081519050919050565b600082825260208201905092915050565b6000819050602082019050919050565b600081519050919050565b600082825260208201905092915050565b60005b83811015611884578082015181840152602081019050611869565b60008484015250505050565b600061189b8261184a565b6118a58185611855565b93506118b5818560208601611866565b6118be81611570565b840191505092915050565b6118d2816114cd565b82525050565b6118e181611530565b82525050565b60006101608301600083015184820360008601526119058282611890565b9150506020830151848203602086015261191f8282611890565b915050604083015161193460408601826118c9565b50606083015161194760608601826118c9565b506080830151848203608086015261195f8282611890565b91505060a083015184820360a08601526119798282611890565b91505060c083015184820360c08601526119938282611890565b91505060e083015184820360e08601526119ad8282611890565b9150506101008301516119c46101008601826118d8565b506101208301516119d96101208601826118d8565b506101408301516119ee6101408601826118c9565b508091505092915050565b6000611a0583836118e7565b905092915050565b6000602082019050919050565b6000611a258261181e565b611a2f8185611829565b935083602082028501611a418561183a565b8060005b85811015611a7d5784840389528151611a5e85826119f9565b9450611a6983611a0d565b925060208a01995050600181019050611a45565b50829750879550505050505092915050565b60006020820190508181036000830152611aa98184611a1a565b905092915050565b611aba816114cd565b82525050565b6000602082019050611ad56000830184611ab1565b92915050565b600073ffffffffffffffffffffffffffffffffffffffff82169050919050565b6000611b0682611adb565b9050919050565b611b1681611afb565b8114611b2157600080fd5b50565b600081359050611b3381611b0d565b92915050565b60008060408385031215611b5057611b4f6114c3565b5b6000611b5e85828601611b24565b9250506020611b6f858286016114ee565b9150509250929050565b60008060008060808587031215611b9357611b926114c3565b5b600085013567ffffffffffffffff811115611bb157611bb06114c8565b5b611bbd8782880161167e565b945050602085013567ffffffffffffffff811115611bde57611bdd6114c8565b5b611bea8782880161167e565b935050604085013567ffffffffffffffff811115611c0b57611c0a6114c8565b5b611c178782880161167e565b925050606085013567ffffffffffffffff811115611c3857611c376114c8565b5b611c448782880161167e565b91505092959194509250565b6000604082019050611c656000830185611ab1565b611c726020830184611ab1565b9392505050565b600081519050919050565b600082825260208201905092915050565b6000819050602082019050919050565b600060a083016000830151611cbd60008601826118c9565b5060208301518482036020860152611cd58282611890565b91505060408301518482036040860152611cef8282611890565b91505060608301518482036060860152611d098282611890565b91505060808301518482036080860152611d238282611890565b9150508091505092915050565b6000611d3c8383611ca5565b905092915050565b6000602082019050919050565b6000611d5c82611c79565b611d668185611c84565b935083602082028501611d7885611c95565b8060005b85811015611db45784840389528151611d958582611d30565b9450611da083611d44565b925060208a01995050600181019050611d7c565b50829750879550505050505092915050565b60006020820190508181036000830152611de08184611d51565b905092915050565b600082825260208201905092915050565b6000611e048261184a565b611e0e8185611de8565b9350611e1e818560208601611866565b611e2781611570565b840191505092915050565b60006080820190508181036000830152611e4c8187611df9565b90508181036020830152611e608186611df9565b90508181036040830152611e748185611df9565b90508181036060830152611e888184611df9565b905095945050505050565b7f4e487b7100000000000000000000000000000000000000000000000000000000600052602260045260246000fd5b60006002820490506001821680611eda57607f821691505b602082108103611eed57611eec611e93565b5b50919050565b60008190508160005260206000209050919050565b60006020601f8301049050919050565b600082821b905092915050565b600060088302611f557fffffffffffffffffffffffffffffffffffffffffffffffffffffffffffffffff82611f18565b611f5f8683611f18565b95508019841693508086168417925050509392505050565b6000819050919050565b6000611f9c611f97611f92846114cd565b611f77565b6114cd565b9050919050565b6000819050919050565b611fb683611f81565b611fca611fc282611fa3565b848454611f25565b825550505050565b600090565b611fdf611fd2565b611fea818484611fad565b505050565b5b8181101561200e57612003600082611fd7565b600181019050611ff0565b5050565b601f8211156120535761202481611ef3565b61202d84611f08565b8101602085101561203c578190505b61205061204885611f08565b830182611fef565b50505b505050565b600082821c905092915050565b600061207660001984600802612058565b1980831691505092915050565b600061208f8383612065565b9150826002028217905092915050565b6120a88261184a565b67ffffffffffffffff8111156120c1576120c0611581565b5b6120cb8254611ec2565b6120d6828285612012565b600060209050601f83116001811461210957600084156120f7578287015190505b6121018582612083565b865550612169565b601f19841661211786611ef3565b60005b8281101561213f5784890151825560018201915060208501945060208101905061211a565b8683101561215c5784890151612158601f891682612065565b8355505b6001600288020188555050505b505050505050565b7f4e487b7100000000000000000000000000000000000000000000000000000000600052601160045260246000fd5b60006121ab826114cd565b91507fffffffffffffffffffffffffffffffffffffffffffffffffffffffffffffffff82036121dd576121dc612171565b5b600182019050919050565b7f4e487b7100000000000000000000000000000000000000000000000000000000600052603260045260246000fd5b7f42616c616e6365206e65656420746f2062652067726561746572207468616e2060008201527f3230000000000000000000000000000000000000000000000000000000000000602082015250565b6000612273602283611de8565b915061227e82612217565b604082019050919050565b600060208201905081810360008301526122a281612266565b9050919050565b7f4e6f206173736574207769746820746869732055554944206578697374730000600082015250565b60006122df601e83611de8565b91506122ea826122a9565b602082019050919050565b6000602082019050818103600083015261230e816122d2565b9050919050565b7f53656e64657220646f6573206e6f74206f776e20746869732061737365742e00600082015250565b600061234b601f83611de8565b915061235682612315565b602082019050919050565b6000602082019050818103600083015261237a8161233e565b9050919050565b600081905092915050565b7f31323340676d61696c2e636f6d00000000000000000000000000000000000000600082015250565b60006123c2600d83612381565b91506123cd8261238c565b600d82019050919050565b60006123e3826123b5565b9150819050919050565b600081546123fa81611ec2565b6124048186612381565b9450600182166000811461241f576001811461243457612467565b60ff1983168652811515820286019350612467565b61243d85611ef3565b60005b8381101561245f57815481890152600182019150602081019050612440565b838801955050505b50505092915050565b600061247c82846123ed565b915081905092915050565b7f4469737472696275746f7220616c726561647920657869737473000000000000600082015250565b60006124bd601a83611de8565b91506124c882612487565b602082019050919050565b600060208201905081810360008301526124ec816124b0565b9050919050565b7f417373657420646f6573206e6f74206578697374730000000000000000000000600082015250565b6000612529601583611de8565b9150612534826124f3565b602082019050919050565b600060208201905081810360008301526125588161251c565b905091905056fea264697066735822122037d8271dc79057f71ba580e43970206a86a828d0a03187d170e933d2dba07f0964736f6c63430008180033",
  "linkReferences": {},
  "deployedLinkReferences": {}
}